:020000040000FA
:020000003429A1
:040002000034003492
:080008008B13F41001303502E6
:10001000031923280230350203194328033035021F
:1000200003196C280430350203199628053035026F
:100030000319BB28063035020319DB2807303502C7
:10004000031904292E29C0301522F4148B1C3028E2
:10005000A80A0330280203192E283F28A8013F28A8
:10006000AE0A28302E02031936282E29AE01B50A11
:100070002808B300BC213408AF07B4013F28303052
:10008000280715222E29C1301522F4148B1C59285B
:10009000A90A02302802031952280A30290203193A
:1000A0005728682806302902031957286828A9010B
:1000B0006828AE0A28302E0203195F282E29AE01C7
:1000C000B50A2908B300C3213408AF07B401682872
:1000D0003030290715222E29C2301522F4148B1C2A
:1000E0008728AA0A0230280203197B280A302A022C
:1000F00003198528922805302902031980287628BB
:1001000006302A02031985289228AA019228AE0AED
:1001100028302E0203198D282E29AE01B50A2A088F
:10012000AF07922830302A0715222E29B70A01304E
:1001300037020319B928C3301522F4148B1CAC28DC
:10014000003036020319A828B6032A3015222E29BA
:10015000B60A2B3015222E29AE0A28302E0203199A
:10016000B2282E29AE01B50A003036020319A428A0
:10017000A828B60A9B28C4301522F4148B1CC82862
:10018000AB0A03302B020319C628D728AB01D728A6
:10019000AE0A28302E020319CE282E29AE01B50A48
:1001A0002B08B300BC213408B007B401D728303085
:1001B0002B0715222E29C5301522F4148B1CF1288B
:1001C000AC0A02302B020319EA280A302C02031968
:1001D000EF28002906302C020319EF280029AC0172
:1001E0000029AE0A28302E020319F7282E29AE0165
:1001F000B50A2C08B300C3213408B007B4010029A4
:1002000030302C0715222E29C6301522F4148B1CF1
:100210001F29AD0A02302B02031913290A302D02BF
:1002200003191D292A2901302C02031918290E2926
:1002300006302D0203191D292A29AD012A29AE0AEB
:1002400028302E02031925292E29AE01B50A2D08C2
:10025000B0072A2930302D0715222E293D30810084
:100260008B100B118B1709000030A800A900AA0001
:10027000AB00AC00AD00AE00B6010130B500B70177
:100280008316031388018312031388012522B30107
:10029000B401B801B901BA01B101AF01B001F41064
:1002A00080301522F4147A2183160313C73081009D
:1002B00083160313FF308600831203138B170B166C
:1002C0008B108B160B113D308100B51D79298B12D7
:1002D000F410C7301522F4143D3015229921361838
:1002E00072297429F1217529ED21CB21DE21F62116
:1002F00034296529453015224E30152254301522F7
:100300004530152252301522203015224F3015224B
:100310005030152245301522523015224130152219
:1003200054301522493015224F3015224E301522F7
:100330000800F41080301522F41452301522453094
:10034000152253301522553015224C3015225430C9
:100350001522203015222030152220301522203081
:100360001522203015222030152220301522203071
:1003700015222030152208006430B2003308B4077B
:10038000B20BBF2908000A30B2003308B407B20B21
:10039000C629B301080003146430B102B80A031877
:1003A000CD29B107B80303140A30B102B90A031802
:1003B000D529B107B9033108BA000800F410C830D4
:1003C0001522F4143030B807B907BA0738081522D7
:1003D000390815223A08152208002F083007B10005
:1003E00008002F08B107B00BF22908000C30A70055
:1003F000C830A600FA30A50000000000A50BFC29BB
:10040000A60BFA29A70BF8290800F930F000000024
:10041000F00B072A0800F1000522F10B0C2A080056
:1004200008150522081105220800F500F03988009A
:10043000F418881410220522F50E7508F03988008A
:10044000F418881410220522080064300B22F030C2
:10045000F40030308800102205300B2210220522D3
:1004600010220812102228301522083015220130DF
:10047000152206301522803015220C301522080076
:02400E00313748
:00000001FF
